02RETORNO01COBRANCA       00000000000004839452KAYANO CONSTRUCOES E PARTICIPA237BRADESCO       0701250160000002259                                                                                                                                                                                                                                                                          080125         000001
10204602261000132000001600127040040000000000000640115630320941000000001604032094110000000000000000000000000602070125000032094100000000160403209411120225000000000640023704152  000000000000000000000000000000000000000000000000000000000000000000000000000000000000000000000000000000000000000000000                          7600000000                                                                  000002
10204602261000132000001600127040040000000000000640110080321093000000001604032109320000000000000000000000000602070125000032109300000000160403210932050225000000000575023704152  000000000000000000000000000000000000000000000000000000000000000000000000000000000000000000000000000000000000000000000                          0000000000                                                                  000003
10204602261000132000001600127040040000000000000640000550321221000000001604032122180000000000000000000000000602070125000032122100000000160403212218150225000000003647723704152  000000000000000000000000000000000000000000000000000000000000000000000000000000000000000000000000000000000000000000000                          0000000000                                                                  000004
10204602261000132000001600127040040000000000000640000840321222000000001604032122260000000000000000000000000602070125000032122200000000160403212226050225000000003697523704152  000000000000000000000000000000000000000000000000000000000000000000000000000000000000000000000000000000000000000000000                          0000000000                                                                  000005
10204602261000132000001600127040040000000000000640001020321223000000001604032122340000000000000000000000000602070125000032122300000000160403212234190225000000003893523704152  000000000000000000000000000000000000000000000000000000000000000000000000000000000000000000000000000000000000000000000                          7600000000                                                                  000006
10204602261000132000001600127040040000000000000640001280321224000000001604032122420000000000000000000000000602070125000032122400000000160403212242130225000000003234123704151  000000000000000000000000000000000000000000000000000000000000000000000000000000000000000000000000000000000000000000000                          7600000000                                                                  000007
10204602261000132000001600127040040000000000000640001360321225000000001604032122500000000000000000000000000602070125000032122500000000160403212250280225000000003670523704152  000000000000000000000000000000000000000000000000000000000000000000000000000000000000000000000000000000000000000000000                          0000000000                                                                  000008
10204602261000132000001600127040040000000000000640001610321226000000001604032122690000000000000000000000000602070125000032122600000000160403212269250225000000003670523704152  000000000000000000000000000000000000000000000000000000000000000000000000000000000000000000000000000000000000000000000                          0000000000                                                                  000009
10204602261000132000001600127040040000000000000640001850321227000000001604032122770000000000000000000000000602070125000032122700000000160403212277100225000000003530123704152  000000000000000000000000000000000000000000000000000000000000000000000000000000000000000000000000000000000000000000000                          0000000000                                                                  000010
10204602261000132000001600127040040000000000000640001880321228000000001604032122850000000000000000000000000602070125000032122800000000160403212285100225000000007755023704152  000000000000000000000000000000000000000000000000000000000000000000000000000000000000000000000000000000000000000000000                          0000000000                                                                  000011
10204602261000132000001600127040040000000000000640002080321229000000001604032122930000000000000000000000000602070125000032122900000000160403212293100225000000004163023704152  000000000000000000000000000000000000000000000000000000000000000000000000000000000000000000000000000000000000000000000                          0000000000                                                                  000012
10204602261000132000001600127040040000000000000640002230321230000000001604032123070000000000000000000000000602070125000032123000000000160403212307200225000000003993523704152  000000000000000000000000000000000000000000000000000000000000000000000000000000000000000000000000000000000000000000000                          0000000000                                                                  000013
10204602261000132000001600127040040000000000000640002240321231000000001604032123150000000000000000000000000602070125000032123100000000160403212315200225000000004244523704152  000000000000000000000000000000000000000000000000000000000000000000000000000000000000000000000000000000000000000000000                          0000000000                                                                  000014
10204602261000132000001600127040040000000000000640002280321232000000001604032123230000000000000000000000000602070125000032123200000000160403212323200225000000004244523704152  000000000000000000000000000000000000000000000000000000000000000000000000000000000000000000000000000000000000000000000                          0000000000                                                                  000015
10204602261000132000001600127040040000000000000640002440321233000000001604032123310000000000000000000000000602070125000032123300000000160403212331200225000000004244523704152  000000000000000000000000000000000000000000000000000000000000000000000000000000000000000000000000000000000000000000000                          0000000000                                                                  000016
102046022610001320000016001270400400000000000006400026603212340000000016040321234P000000000000000000000000060207012500003212340000000016040321234P050225000000003830023704152  000000000000000000000000000000000000000000000000000000000000000000000000000000000000000000000000000000000000000000000                          0000000000                                                                  000017
10204602261000132000001600127040040000000000000640002740321235000000001604032123580000000000000000000000000602070125000032123500000000160403212358110225000000011348723704151  000000000000000000000000000000000000000000000000000000000000000000000000000000000000000000000000000000000000000000000                          7600000000                                                                  000018
10204602261000132000001600127040040000000000000640002750321236000000001604032123660000000000000000000000000602070125000032123600000000160403212366280225000000007660523704152  000000000000000000000000000000000000000000000000000000000000000000000000000000000000000000000000000000000000000000000                          0000000000                                                                  000019
10204602261000132000001600127040040000000000000640002820321237000000001604032123740000000000000000000000000602070125000032123700000000160403212374090225000000003593323704152  000000000000000000000000000000000000000000000000000000000000000000000000000000000000000000000000000000000000000000000                          7600000000                                                                  000020
10204602261000132000001600127040040000000000000640002830321238000000001604032123820000000000000000000000000602070125000032123800000000160403212382100225000000010779623704151  000000000000000000000000000000000000000000000000000000000000000000000000000000000000000000000000000000000000000000000                          0000000000                                                                  000021
10204602261000132000001600127040040000000000000640002850321239000000001604032123900000000000000000000000000602070125000032123900000000160403212390110225000000003830023704152  000000000000000000000000000000000000000000000000000000000000000000000000000000000000000000000000000000000000000000000                          0000000000                                                                  000022
10204602261000132000001600127040040000000000000640002880321240000000001604032124040000000000000000000000000602070125000032124000000000160403212404080225000000003830023704152  000000000000000000000000000000000000000000000000000000000000000000000000000000000000000000000000000000000000000000000                          0000000000                                                                  000023
10204602261000132000001600127040040000000000000640002930321241000000001604032124120000000000000000000000000602070125000032124100000000160403212412050225000000003830023704152  000000000000000000000000000000000000000000000000000000000000000000000000000000000000000000000000000000000000000000000                          0000000000                                                                  000024
10204602261000132000001600127040040000000000000640002940321242000000001604032124200000000000000000000000000602070125000032124200000000160403212420250225000000003830023704151  000000000000000000000000000000000000000000000000000000000000000000000000000000000000000000000000000000000000000000000                          0000000000                                                                  000025
10204602261000132000001600127040040000000000000640002950321243000000001604032124390000000000000000000000000602070125000032124300000000160403212439160225000000003830023704152  000000000000000000000000000000000000000000000000000000000000000000000000000000000000000000000000000000000000000000000                          7600000000                                                                  000026
10204602261000132000001600127040040000000000000640002970321244000000001604032124470000000000000000000000000602070125000032124400000000160403212447150225000000003830023704152  000000000000000000000000000000000000000000000000000000000000000000000000000000000000000000000000000000000000000000000                          0000000000                                                                  000027
10204602261000132000001600127040040000000000000640002980321245000000001604032124550000000000000000000000000602070125000032124500000000160403212455060225000000003830023704152  000000000000000000000000000000000000000000000000000000000000000000000000000000000000000000000000000000000000000000000                          7600000000                                                                  000028
10204602261000132000001600127040040000000000000640003010321246000000001604032124630000000000000000000000000602070125000032124600000000160403212463160225000000003830023704152  000000000000000000000000000000000000000000000000000000000000000000000000000000000000000000000000000000000000000000000                          0000000000                                                                  000029
10204602261000132000001600127040040000000000000640003020321247000000001604032124710000000000000000000000000602070125000032124700000000160403212471150225000000007660523704151  000000000000000000000000000000000000000000000000000000000000000000000000000000000000000000000000000000000000000000000                          0000000000                                                                  000030
102046022610001320000016001270400400000000000006400030903212480000000016040321248P000000000000000000000000060207012500003212480000000016040321248P150225000000003830023704152  000000000000000000000000000000000000000000000000000000000000000000000000000000000000000000000000000000000000000000000                          7600000000                                                                  000031
10204602261000132000001600127040040000000000000640003110321249000000001604032124980000000000000000000000000602070125000032124900000000160403212498200225000000003593323704152  000000000000000000000000000000000000000000000000000000000000000000000000000000000000000000000000000000000000000000000                          0000000000                                                                  000032
10204602261000132000001600127040040000000000000640003120321250000000001604032125010000000000000000000000000602070125000032125000000000160403212501250225000000003593323704152  000000000000000000000000000000000000000000000000000000000000000000000000000000000000000000000000000000000000000000000                          0000000000                                                                  000033
102046022610001320000016001270400400000000000006400031303212510000000016040321251P000000000000000000000000060207012500003212510000000016040321251P050225000000003830023704152  000000000000000000000000000000000000000000000000000000000000000000000000000000000000000000000000000000000000000000000                          0000000000                                                                  000034
10204602261000132000001600127040040000000000000640003150321252000000001604032125280000000000000000000000000602070125000032125200000000160403212528200225000000003830023704152  000000000000000000000000000000000000000000000000000000000000000000000000000000000000000000000000000000000000000000000                          0000000000                                                                  000035
10204602261000132000001600127040040000000000000640003170321253000000001604032125360000000000000000000000000602070125000032125300000000160403212536100225000000003830023704152  000000000000000000000000000000000000000000000000000000000000000000000000000000000000000000000000000000000000000000000                          0000000000                                                                  000036
10204602261000132000001600127040040000000000000640003200321254000000001604032125440000000000000000000000000602070125000032125400000000160403212544240225000000003593323704152  000000000000000000000000000000000000000000000000000000000000000000000000000000000000000000000000000000000000000000000                          0000000000                                                                  000037
10204602261000132000001600127040040000000000000640003210321255000000001604032125520000000000000000000000000602070125000032125500000000160403212552200225000000003830023704152  000000000000000000000000000000000000000000000000000000000000000000000000000000000000000000000000000000000000000000000                          0000000000                                                                  000038
10204602261000132000001600127040040000000000000640003220321256000000001604032125600000000000000000000000000602070125000032125600000000160403212560230225000000003830023704152  000000000000000000000000000000000000000000000000000000000000000000000000000000000000000000000000000000000000000000000                          0000000000                                                                  000039
10204602261000132000001600127040040000000000000640003240321257000000001604032125790000000000000000000000000602070125000032125700000000160403212579220225000000003830023704152  000000000000000000000000000000000000000000000000000000000000000000000000000000000000000000000000000000000000000000000                          0000000000                                                                  000040
10204602261000132000001600127040040000000000000640003260321258000000001604032125870000000000000000000000000602070125000032125800000000160403212587120225000000007660523704151  000000000000000000000000000000000000000000000000000000000000000000000000000000000000000000000000000000000000000000000                          0000000000                                                                  000041
10204602261000132000001600127040040000000000000640003310321259000000001604032125950000000000000000000000000602070125000032125900000000160403212595210225000000003830023704152  000000000000000000000000000000000000000000000000000000000000000000000000000000000000000000000000000000000000000000000                          7600000000                                                                  000042
10204602261000132000001600127040040000000000000640003360321260000000001604032126090000000000000000000000000602070125000032126000000000160403212609260225000000003830023704152  000000000000000000000000000000000000000000000000000000000000000000000000000000000000000000000000000000000000000000000                          0000000000                                                                  000043
10204602261000132000001600127040040000000000000640003370321261000000001604032126170000000000000000000000000602070125000032126100000000160403212617260225000000003830023704152  000000000000000000000000000000000000000000000000000000000000000000000000000000000000000000000000000000000000000000000                          0000000000                                                                  000044
10204602261000132000001600127040040000000000000640003380321262000000001604032126250000000000000000000000000602070125000032126200000000160403212625200225000000003830023704152  000000000000000000000000000000000000000000000000000000000000000000000000000000000000000000000000000000000000000000000                          0000000000                                                                  000045
10204602261000132000001600127040040000000000000640003400321263000000001604032126330000000000000000000000000602070125000032126300000000160403212633240225000000003830023704152  000000000000000000000000000000000000000000000000000000000000000000000000000000000000000000000000000000000000000000000                          0000000000                                                                  000046
10204602261000132000001600127040040000000000000640003410321264000000001604032126410000000000000000000000000602070125000032126400000000160403212641270225000000007660523704152  000000000000000000000000000000000000000000000000000000000000000000000000000000000000000000000000000000000000000000000                          7600000000                                                                  000047
102046022610001320000016001270400400000000000006400034903212650000000016040321265P000000000000000000000000060207012500003212650000000016040321265P100225000000003830023704152  000000000000000000000000000000000000000000000000000000000000000000000000000000000000000000000000000000000000000000000                          7600000000                                                                  000048
10204602261000132000001600127040040000000000000640003500321266000000001604032126680000000000000000000000000602070125000032126600000000160403212668250225000000003593323704152  000000000000000000000000000000000000000000000000000000000000000000000000000000000000000000000000000000000000000000000                          0000000000                                                                  000049
10204602261000132000001600127040040000000000000640003510321267000000001604032126760000000000000000000000000602070125000032126700000000160403212676240225000000007660523704152  000000000000000000000000000000000000000000000000000000000000000000000000000000000000000000000000000000000000000000000                          7600000000                                                                  000050
10204602261000132000001600127040040000000000000640003520321268000000001604032126840000000000000000000000000602070125000032126800000000160403212684120225000000003830023704151  000000000000000000000000000000000000000000000000000000000000000000000000000000000000000000000000000000000000000000000                          7600000000                                                                  000051
10204602261000132000001600127040040000000000000640003530321269000000001604032126920000000000000000000000000602070125000032126900000000160403212692280225000000003830023704151  000000000000000000000000000000000000000000000000000000000000000000000000000000000000000000000000000000000000000000000                          0000000000                                                                  000052
10204602261000132000001600127040040000000000000640003540321270000000001604032127060000000000000000000000000602070125000032127000000000160403212706280225000000003830023704152  000000000000000000000000000000000000000000000000000000000000000000000000000000000000000000000000000000000000000000000                          0000000000                                                                  000053
10204602261000132000001600127040040000000000000640003550321271000000001604032127140000000000000000000000000602070125000032127100000000160403212714280225000000003830023704152  000000000000000000000000000000000000000000000000000000000000000000000000000000000000000000000000000000000000000000000                          0000000000                                                                  000054
10204602261000132000001600127040040000000000000640003560321272000000001604032127220000000000000000000000000602070125000032127200000000160403212722150225000000003830023704152  000000000000000000000000000000000000000000000000000000000000000000000000000000000000000000000000000000000000000000000                          7600000000                                                                  000055
10204602261000132000001600127040040000000000000640003570321273000000001604032127300000000000000000000000000602070125000032127300000000160403212730200225000000003830023704151  000000000000000000000000000000000000000000000000000000000000000000000000000000000000000000000000000000000000000000000                          7600000000                                                                  000056
10204602261000132000001600127040040000000000000640003620321274000000001604032127490000000000000000000000000602070125000032127400000000160403212749150225000000003830023704152  000000000000000000000000000000000000000000000000000000000000000000000000000000000000000000000000000000000000000000000                          0000000000                                                                  000057
10204602261000132000001600127040040000000000000640003630321275000000001604032127570000000000000000000000000602070125000032127500000000160403212757280225000000007660523704152  000000000000000000000000000000000000000000000000000000000000000000000000000000000000000000000000000000000000000000000                          7600000000                                                                  000058
10204602261000132000001600127040040000000000000640003640321276000000001604032127650000000000000000000000000602070125000032127600000000160403212765280225000000003830023704152  000000000000000000000000000000000000000000000000000000000000000000000000000000000000000000000000000000000000000000000                          0000000000                                                                  000059
10204602261000132000001600127040040000000000000640003650321277000000001604032127730000000000000000000000000602070125000032127700000000160403212773160225000000003830023704152  000000000000000000000000000000000000000000000000000000000000000000000000000000000000000000000000000000000000000000000                          0000000000                                                                  000060
10204602261000132000001600127040040000000000000640003700321278000000001604032127810000000000000000000000000602070125000032127800000000160403212781100225000000010968923704152  000000000000000000000000000000000000000000000000000000000000000000000000000000000000000000000000000000000000000000000                          0000000000                                                                  000061
102046022610001320000016001270400400000000000006400038603212790000000016040321279P000000000000000000000000060207012500003212790000000016040321279P120225000000004111723704151  000000000000000000000000000000000000000000000000000000000000000000000000000000000000000000000000000000000000000000000                          0000000000                                                                  000062
10204602261000132000001600127040040000000000000640005690321280000000001604032128030000000000000000000000000602070125000032128000000000160403212803100225000000003730223704151  000000000000000000000000000000000000000000000000000000000000000000000000000000000000000000000000000000000000000000000                          7600000000                                                                  000063
10204602261000132000001600127040040000000000000640007760321281000000001604032128110000000000000000000000000602070125000032128100000000160403212811070225000000006811023704152  000000000000000000000000000000000000000000000000000000000000000000000000000000000000000000000000000000000000000000000                          0000000000                                                                  000064
102046022610001320000016001270400400000000000006400087303212820000000016040321282P000000000000000000000000060207012500003212820000000016040321282P190225000000003731423704152  000000000000000000000000000000000000000000000000000000000000000000000000000000000000000000000000000000000000000000000                          0000000000                                                                  000065
10204602261000132000001600127040040000000000000640009140321283000000001604032128380000000000000000000000000602070125000032128300000000160403212838280225000000003887223704152  000000000000000000000000000000000000000000000000000000000000000000000000000000000000000000000000000000000000000000000                          0000000000                                                                  000066
10204602261000132000001600127040040000000000000640009280321284000000001604032128460000000000000000000000000602070125000032128400000000160403212846100225000000003405523704152  000000000000000000000000000000000000000000000000000000000000000000000000000000000000000000000000000000000000000000000                          0000000000                                                                  000067
10204602261000132000001600127040040000000000000640009480321285000000001604032128540000000000000000000000000602070125000032128500000000160403212854150225000000003405523704151  000000000000000000000000000000000000000000000000000000000000000000000000000000000000000000000000000000000000000000000                          7600000000                                                                  000068
10204602261000132000001600127040040000000000000640009520321286000000001604032128620000000000000000000000000602070125000032128600000000160403212862100225000000003405523704151  000000000000000000000000000000000000000000000000000000000000000000000000000000000000000000000000000000000000000000000                          7600000000                                                                  000069
10204602261000132000001600127040040000000000000640009540321287000000001604032128700000000000000000000000000602070125000032128700000000160403212870160225000000003405523704151  000000000000000000000000000000000000000000000000000000000000000000000000000000000000000000000000000000000000000000000                          0000000000                                                                  000070
10204602261000132000001600127040040000000000000640009580321288000000001604032128890000000000000000000000000602070125000032128800000000160403212889200225000000003001823704152  000000000000000000000000000000000000000000000000000000000000000000000000000000000000000000000000000000000000000000000                          0000000000                                                                  000071
10204602261000132000001600127040040000000000000640009590321289000000001604032128970000000000000000000000000602070125000032128900000000160403212897100225000000003001823704151  000000000000000000000000000000000000000000000000000000000000000000000000000000000000000000000000000000000000000000000                          0000000000                                                                  000072
10204602261000132000001600127040040000000000000640009610321290000000001604032129000000000000000000000000000602070125000032129000000000160403212900090225000000003405523704152  000000000000000000000000000000000000000000000000000000000000000000000000000000000000000000000000000000000000000000000                          7600000000                                                                  000073
10204602261000132000001600127040040000000000000640009670321291000000001604032129190000000000000000000000000602070125000032129100000000160403212919120225000000003001823704152  000000000000000000000000000000000000000000000000000000000000000000000000000000000000000000000000000000000000000000000                          7600000000                                                                  000074
10204602261000132000001600127040040000000000000640009700321292000000001604032129270000000000000000000000000602070125000032129200000000160403212927150225000000003405523704152  000000000000000000000000000000000000000000000000000000000000000000000000000000000000000000000000000000000000000000000                          0000000000                                                                  000075
10204602261000132000001600127040040000000000000640009710321293000000001604032129350000000000000000000000000602070125000032129300000000160403212935200225000000003405523704152  000000000000000000000000000000000000000000000000000000000000000000000000000000000000000000000000000000000000000000000                          0000000000                                                                  000076
10204602261000132000001600127040040000000000000640009730321294000000001604032129430000000000000000000000000602070125000032129400000000160403212943170225000000003405523704152  000000000000000000000000000000000000000000000000000000000000000000000000000000000000000000000000000000000000000000000                          7600000000                                                                  000077
10204602261000132000001600127040040000000000000640009800321295000000001604032129510000000000000000000000000602070125000032129500000000160403212951060225000000003405523704151  000000000000000000000000000000000000000000000000000000000000000000000000000000000000000000000000000000000000000000000                          0000000000                                                                  000078
102046022610001320000016001270400400000000000006400098103212960000000016040321296P000000000000000000000000060207012500003212960000000016040321296P130225000000003405523704152  000000000000000000000000000000000000000000000000000000000000000000000000000000000000000000000000000000000000000000000                          0000000000                                                                  000079
10204602261000132000001600127040040000000000000640009820321297000000001604032129780000000000000000000000000602070125000032129700000000160403212978200225000000003001823704152  000000000000000000000000000000000000000000000000000000000000000000000000000000000000000000000000000000000000000000000                          0000000000                                                                  000080
10204602261000132000001600127040040000000000000640009840321298000000001604032129860000000000000000000000000602070125000032129800000000160403212986120225000000003405523704152  000000000000000000000000000000000000000000000000000000000000000000000000000000000000000000000000000000000000000000000                          0000000000                                                                  000081
10204602261000132000001600127040040000000000000640009850321299000000001604032129940000000000000000000000000602070125000032129900000000160403212994200225000000003405523704152  000000000000000000000000000000000000000000000000000000000000000000000000000000000000000000000000000000000000000000000                          0000000000                                                                  000082
10204602261000132000001600127040040000000000000640009920321300000000001604032130010000000000000000000000000602070125000032130000000000160403213001020225000000003405523704152  000000000000000000000000000000000000000000000000000000000000000000000000000000000000000000000000000000000000000000000                          7600000000                                                                  000083
102046022610001320000016001270400400000000000006400099403213010000000016040321301P000000000000000000000000060207012500003213010000000016040321301P200225000000003405523704152  000000000000000000000000000000000000000000000000000000000000000000000000000000000000000000000000000000000000000000000                          0000000000                                                                  000084
10204602261000132000001600127040040000000000000640009960321302000000001604032130280000000000000000000000000602070125000032130200000000160403213028240225000000003261623704152  000000000000000000000000000000000000000000000000000000000000000000000000000000000000000000000000000000000000000000000                          7600000000                                                                  000085
10204602261000132000001600127040040000000000000640009990321303000000001604032130360000000000000000000000000602070125000032130300000000160403213036260225000000003405523704152  000000000000000000000000000000000000000000000000000000000000000000000000000000000000000000000000000000000000000000000                          0000000000                                                                  000086
10204602261000132000001600127040040000000000000640010040321304000000001604032130440000000000000000000000000602070125000032130400000000160403213044230225000000003405523704152  000000000000000000000000000000000000000000000000000000000000000000000000000000000000000000000000000000000000000000000                          0000000000                                                                  000087
10204602261000132000001600127040040000000000000640010110321305000000001604032130520000000000000000000000000602070125000032130500000000160403213052260225000000003405523704152  000000000000000000000000000000000000000000000000000000000000000000000000000000000000000000000000000000000000000000000                          0000000000                                                                  000088
10204602261000132000001600127040040000000000000640010150321306000000001604032130600000000000000000000000000602070125000032130600000000160403213060280225000000003001823704152  000000000000000000000000000000000000000000000000000000000000000000000000000000000000000000000000000000000000000000000                          7600000000                                                                  000089
10204602261000132000001600127040040000000000000640010190321307000000001604032130790000000000000000000000000602070125000032130700000000160403213079270225000000003405523704152  000000000000000000000000000000000000000000000000000000000000000000000000000000000000000000000000000000000000000000000                          0000000000                                                                  000090
10204602261000132000001600127040040000000000000640010210321308000000001604032130870000000000000000000000000602070125000032130800000000160403213087240225000000002995223704152  000000000000000000000000000000000000000000000000000000000000000000000000000000000000000000000000000000000000000000000                          0000000000                                                                  000091
10204602261000132000001600127040040000000000000640010250321309000000001604032130950000000000000000000000000602070125000032130900000000160403213095250225000000003405523704151  000000000000000000000000000000000000000000000000000000000000000000000000000000000000000000000000000000000000000000000                          7600000000                                                                  000092
10204602261000132000001600127040040000000000000640010270321310000000001604032131090000000000000000000000000602070125000032131000000000160403213109240225000000003405523704152  000000000000000000000000000000000000000000000000000000000000000000000000000000000000000000000000000000000000000000000                          0000000000                                                                  000093
10204602261000132000001600127040040000000000000640010300321311000000001604032131170000000000000000000000000602070125000032131100000000160403213117150225000000006811023704152  000000000000000000000000000000000000000000000000000000000000000000000000000000000000000000000000000000000000000000000                          0000000000                                                                  000094
10204602261000132000001600127040040000000000000640010360321312000000001604032131250000000000000000000000000602070125000032131200000000160403213125150225000000003405523704152  000000000000000000000000000000000000000000000000000000000000000000000000000000000000000000000000000000000000000000000                          0000000000                                                                  000095
10204602261000132000001600127040040000000000000640010370321313000000001604032131330000000000000000000000000602070125000032131300000000160403213133260225000000003261623704152  000000000000000000000000000000000000000000000000000000000000000000000000000000000000000000000000000000000000000000000                          7600000000                                                                  000096
10204602261000132000001600127040040000000000000640010420321314000000001604032131410000000000000000000000000602070125000032131400000000160403213141270225000000003405523704152  000000000000000000000000000000000000000000000000000000000000000000000000000000000000000000000000000000000000000000000                          0000000000                                                                  000097
102046022610001320000016001270400400000000000006400104303213150000000016040321315P000000000000000000000000060207012500003213150000000016040321315P280225000000006811023704152  000000000000000000000000000000000000000000000000000000000000000000000000000000000000000000000000000000000000000000000                          0000000000                                                                  000098
10204602261000132000001600127040040000000000000640010560321316000000001604032131680000000000000000000000000602070125000032131600000000160403213168280225000000003405523704152  000000000000000000000000000000000000000000000000000000000000000000000000000000000000000000000000000000000000000000000                          0000000000                                                                  000099
10204602261000132000001600127040040000000000000640010580321317000000001604032131760000000000000000000000000602070125000032131700000000160403213176280225000000003405523704151  000000000000000000000000000000000000000000000000000000000000000000000000000000000000000000000000000000000000000000000                          7600000000                                                                  000100
10204602261000132000001600127040040000000000000640010690321318000000001604032131840000000000000000000000000602070125000032131800000000160403213184210225000000009076023704151  000000000000000000000000000000000000000000000000000000000000000000000000000000000000000000000000000000000000000000000                          0000000000                                                                  000101
10204602261000132000001600127040040000000000000640014330321319000000001604032131920000000000000000000000000602070125000032131900000000160403213192200225000000007849223704152  000000000000000000000000000000000000000000000000000000000000000000000000000000000000000000000000000000000000000000000                          0000000000                                                                  000102
10204602261000132000001600127040040000000000000640015050321320000000001604032132060000000000000000000000000602070125000032132000000000160403213206250225000000007849223704151  000000000000000000000000000000000000000000000000000000000000000000000000000000000000000000000000000000000000000000000                          0000000000                                                                  000103
10204602261000132000001600127040040000000000000640015520321321000000001604032132140000000000000000000000000602070125000032132100000000160403213214070225000000004163023704152  000000000000000000000000000000000000000000000000000000000000000000000000000000000000000000000000000000000000000000000                          0000000000                                                                  000104
10204602261000132000001600127040040000000000000640015560321322000000001604032132220000000000000000000000000602070125000032132200000000160403213222100225000000004163023704152  000000000000000000000000000000000000000000000000000000000000000000000000000000000000000000000000000000000000000000000                          0000000000                                                                  000105
10204602261000132000001600127040040000000000000640015630321323000000001604032132300000000000000000000000000602070125000032132300000000160403213230120225000000004163023704151  000000000000000000000000000000000000000000000000000000000000000000000000000000000000000000000000000000000000000000000                          0000000000                                                                  000106
10204602261000132000001600127040040000000000000640015650321324000000001604032132490000000000000000000000000602070125000032132400000000160403213249100225000000004163023704152  000000000000000000000000000000000000000000000000000000000000000000000000000000000000000000000000000000000000000000000                          0000000000                                                                  000107
10204602261000132000001600127040040000000000000640015660321325000000001604032132570000000000000000000000000602070125000032132500000000160403213257080225000000004163023704151  000000000000000000000000000000000000000000000000000000000000000000000000000000000000000000000000000000000000000000000                          0000000000                                                                  000108
10204602261000132000001600127040040000000000000640015690321326000000001604032132650000000000000000000000000602070125000032132600000000160403213265030225000000004163023704151  000000000000000000000000000000000000000000000000000000000000000000000000000000000000000000000000000000000000000000000                          0000000000                                                                  000109
10204602261000132000001600127040040000000000000640015730321327000000001604032132730000000000000000000000000602070125000032132700000000160403213273030225000000004163023704151  000000000000000000000000000000000000000000000000000000000000000000000000000000000000000000000000000000000000000000000                          0000000000                                                                  000110
10204602261000132000001600127040040000000000000640015750321328000000001604032132810000000000000000000000000602070125000032132800000000160403213281080225000000003916723704152  000000000000000000000000000000000000000000000000000000000000000000000000000000000000000000000000000000000000000000000                          7600000000                                                                  000111
102046022610001320000016001270400400000000000006400157703213290000000016040321329P000000000000000000000000060207012500003213290000000016040321329P080225000000004163023704152  000000000000000000000000000000000000000000000000000000000000000000000000000000000000000000000000000000000000000000000                          0000000000                                                                  000112
10204602261000132000001600127040040000000000000640015780321330000000001604032133030000000000000000000000000602070125000032133000000000160403213303160225000000004163023704152  000000000000000000000000000000000000000000000000000000000000000000000000000000000000000000000000000000000000000000000                          7600000000                                                                  000113
10204602261000132000001600127040040000000000000640015790321331000000001604032133110000000000000000000000000602070125000032133100000000160403213311110225000000004163023704151  000000000000000000000000000000000000000000000000000000000000000000000000000000000000000000000000000000000000000000000                          7600000000                                                                  000114
102046022610001320000016001270400400000000000006400158003213320000000016040321332P000000000000000000000000060207012500003213320000000016040321332P150225000000004163023704152  000000000000000000000000000000000000000000000000000000000000000000000000000000000000000000000000000000000000000000000                          0000000000                                                                  000115
10204602261000132000001600127040040000000000000640015840321333000000001604032133380000000000000000000000000602070125000032133300000000160403213338100225000000004163023704151  000000000000000000000000000000000000000000000000000000000000000000000000000000000000000000000000000000000000000000000                          0000000000                                                                  000116
10204602261000132000001600127040040000000000000640015870321334000000001604032133460000000000000000000000000602070125000032133400000000160403213346120225000000004089923704152  000000000000000000000000000000000000000000000000000000000000000000000000000000000000000000000000000000000000000000000                          7600000000                                                                  000117
10204602261000132000001600127040040000000000000640015890321335000000001604032133540000000000000000000000000602070125000032133500000000160403213354180225000000004163023704152  000000000000000000000000000000000000000000000000000000000000000000000000000000000000000000000000000000000000000000000                          7600000000                                                                  000118
10204602261000132000001600127040040000000000000640015920321336000000001604032133620000000000000000000000000602070125000032133600000000160403213362180225000000004163023704151  000000000000000000000000000000000000000000000000000000000000000000000000000000000000000000000000000000000000000000000                          0000000000                                                                  000119
10204602261000132000001600127040040000000000000640015930321337000000001604032133700000000000000000000000000602070125000032133700000000160403213370180225000000004163023704151  000000000000000000000000000000000000000000000000000000000000000000000000000000000000000000000000000000000000000000000                          7600000000                                                                  000120
10204602261000132000001600127040040000000000000640015950321338000000001604032133890000000000000000000000000602070125000032133800000000160403213389180225000000004163023704151  000000000000000000000000000000000000000000000000000000000000000000000000000000000000000000000000000000000000000000000                          7600000000                                                                  000121
10204602261000132000001600127040040000000000000640015970321339000000001604032133970000000000000000000000000602070125000032133900000000160403213397130225000000003721223704152  000000000000000000000000000000000000000000000000000000000000000000000000000000000000000000000000000000000000000000000                          0000000000                                                                  000122
10204602261000132000001600127040040000000000000640016000321340000000001604032134000000000000000000000000000602070125000032134000000000160403213400110225000000004163023704152  000000000000000000000000000000000000000000000000000000000000000000000000000000000000000000000000000000000000000000000                          0000000000                                                                  000123
10204602261000132000001600127040040000000000000640016040321341000000001604032134190000000000000000000000000602070125000032134100000000160403213419190225000000004163023704152  000000000000000000000000000000000000000000000000000000000000000000000000000000000000000000000000000000000000000000000                          7600000000                                                                  000124
10204602261000132000001600127040040000000000000640016140321342000000001604032134270000000000000000000000000602070125000032134200000000160403213427220225000000004163023704152  000000000000000000000000000000000000000000000000000000000000000000000000000000000000000000000000000000000000000000000                          0000000000                                                                  000125
10204602261000132000001600127040040000000000000640016180321343000000001604032134350000000000000000000000000602070125000032134300000000160403213435260225000000004163023704151  000000000000000000000000000000000000000000000000000000000000000000000000000000000000000000000000000000000000000000000                          0000000000                                                                  000126
10204602261000132000001600127040040000000000000640016210321344000000001604032134430000000000000000000000000602070125000032134400000000160403213443230225000000004163023704152  000000000000000000000000000000000000000000000000000000000000000000000000000000000000000000000000000000000000000000000                          0000000000                                                                  000127
10204602261000132000001600127040040000000000000640016220321345000000001604032134510000000000000000000000000602070125000032134500000000160403213451230225000000003761123704151  000000000000000000000000000000000000000000000000000000000000000000000000000000000000000000000000000000000000000000000                          0000000000                                                                  000128
102046022610001320000016001270400400000000000006400162303213460000000016040321346P000000000000000000000000060207012500003213460000000016040321346P230225000000004163023704151  000000000000000000000000000000000000000000000000000000000000000000000000000000000000000000000000000000000000000000000                          0000000000                                                                  000129
10204602261000132000001600127040040000000000000640016250321347000000001604032134780000000000000000000000000602070125000032134700000000160403213478260225000000004163023704151  000000000000000000000000000000000000000000000000000000000000000000000000000000000000000000000000000000000000000000000                          7600000000                                                                  000130
10204602261000132000001600127040040000000000000640016270321348000000001604032134860000000000000000000000000602070125000032134800000000160403213486270225000000004163023704151  000000000000000000000000000000000000000000000000000000000000000000000000000000000000000000000000000000000000000000000                          0000000000                                                                  000131
10204602261000132000001600127040040000000000000640016280321349000000001604032134940000000000000000000000000602070125000032134900000000160403213494260225000000003697623704152  000000000000000000000000000000000000000000000000000000000000000000000000000000000000000000000000000000000000000000000                          0000000000                                                                  000132
10204602261000132000001600127040040000000000000640016410321350000000001604032135080000000000000000000000000602070125000032135000000000160403213508030225000000003784923704152  000000000000000000000000000000000000000000000000000000000000000000000000000000000000000000000000000000000000000000000                          0000000000                                                                  000133
10204602261000132000001600127040040000000000000640016430321351000000001604032135160000000000000000000000000602070125000032135100000000160403213516280225000000004163023704151  000000000000000000000000000000000000000000000000000000000000000000000000000000000000000000000000000000000000000000000                          0000000000                                                                  000134
10204602261000132000001600127040040000000000000640016460321352000000001604032135240000000000000000000000000602070125000032135200000000160403213524280225000000004163023704152  000000000000000000000000000000000000000000000000000000000000000000000000000000000000000000000000000000000000000000000                          0000000000                                                                  000135
10204602261000132000001600127040040000000000000640016470321353000000001604032135320000000000000000000000000602070125000032135300000000160403213532280225000000004163023704152  000000000000000000000000000000000000000000000000000000000000000000000000000000000000000000000000000000000000000000000                          7600000000                                                                  000136
10204602261000132000001600127040040000000000000640016480321354000000001604032135400000000000000000000000000602070125000032135400000000160403213540280225000000004163023704152  000000000000000000000000000000000000000000000000000000000000000000000000000000000000000000000000000000000000000000000                          0000000000                                                                  000137
10204602261000132000001600127040040000000000000640016510321355000000001604032135590000000000000000000000000602070125000032135500000000160403213559280225000000004163023704152  000000000000000000000000000000000000000000000000000000000000000000000000000000000000000000000000000000000000000000000                          0000000000                                                                  000138
10204602261000132000001600127040040000000000000640016520321356000000001604032135670000000000000000000000000602070125000032135600000000160403213567280225000000004163023704151  000000000000000000000000000000000000000000000000000000000000000000000000000000000000000000000000000000000000000000000                          0000000000                                                                  000139
10204602261000132000001600127040040000000000000640016600321357000000001604032135750000000000000000000000000602070125000032135700000000160403213575080225000000003784923704152  000000000000000000000000000000000000000000000000000000000000000000000000000000000000000000000000000000000000000000000                          7600000000                                                                  000140
10204602261000132000001600127040040000000000000640016610321358000000001604032135830000000000000000000000000602070125000032135800000000160403213583120225000000007101023704151  000000000000000000000000000000000000000000000000000000000000000000000000000000000000000000000000000000000000000000000                          0000000000                                                                  000141
10204602261000132000001600127040040000000000000640016620321359000000001604032135910000000000000000000000000602070125000032135900000000160403213591120225000000003784923704152  000000000000000000000000000000000000000000000000000000000000000000000000000000000000000000000000000000000000000000000                          0000000000                                                                  000142
10204602261000132000001600127040040000000000000640016650321360000000001604032136050000000000000000000000000602070125000032136000000000160403213605060225000000003784923704151  000000000000000000000000000000000000000000000000000000000000000000000000000000000000000000000000000000000000000000000                          0000000000                                                                  000143
10204602261000132000001600127040040000000000000640016660321361000000001604032136130000000000000000000000000602070125000032136100000000160403213613250225000000003784923704152  000000000000000000000000000000000000000000000000000000000000000000000000000000000000000000000000000000000000000000000                          7600000000                                                                  000144
10204602261000132000001600127040040000000000000640016670321362000000001604032136210000000000000000000000000602070125000032136200000000160403213621050225000000003550823704152  000000000000000000000000000000000000000000000000000000000000000000000000000000000000000000000000000000000000000000000                          0000000000                                                                  000145
102046022610001320000016001270400400000000000006400166803213630000000016040321363P000000000000000000000000060207012500003213630000000016040321363P080225000000003784923704152  000000000000000000000000000000000000000000000000000000000000000000000000000000000000000000000000000000000000000000000                          0000000000                                                                  000146
10204602261000132000001600127040040000000000000640016710321364000000001604032136480000000000000000000000000602070125000032136400000000160403213648090225000000003784923704152  000000000000000000000000000000000000000000000000000000000000000000000000000000000000000000000000000000000000000000000                          7600000000                                                                  000147
10204602261000132000001600127040040000000000000640016720321365000000001604032136560000000000000000000000000602070125000032136500000000160403213656200225000000003784923704151  000000000000000000000000000000000000000000000000000000000000000000000000000000000000000000000000000000000000000000000                          7600000000                                                                  000148
10204602261000132000001600127040040000000000000640016750321366000000001604032136640000000000000000000000000602070125000032136600000000160403213664160225000000003784923704151  000000000000000000000000000000000000000000000000000000000000000000000000000000000000000000000000000000000000000000000                          0000000000                                                                  000149
10204602261000132000001600127040040000000000000640016780321367000000001604032136720000000000000000000000000602070125000032136700000000160403213672140225000000003784923704152  000000000000000000000000000000000000000000000000000000000000000000000000000000000000000000000000000000000000000000000                          0000000000                                                                  000150
10204602261000132000001600127040040000000000000640016790321368000000001604032136800000000000000000000000000602070125000032136800000000160403213680200225000000003784923704152  000000000000000000000000000000000000000000000000000000000000000000000000000000000000000000000000000000000000000000000                          0000000000                                                                  000151
10204602261000132000001600127040040000000000000640016800321369000000001604032136990000000000000000000000000602070125000032136900000000160403213699180225000000003942823704152  000000000000000000000000000000000000000000000000000000000000000000000000000000000000000000000000000000000000000000000                          0000000000                                                                  000152
10204602261000132000001600127040040000000000000640016810321370000000001604032137020000000000000000000000000602070125000032137000000000160403213702180225000000003784923704152  000000000000000000000000000000000000000000000000000000000000000000000000000000000000000000000000000000000000000000000                          7600000000                                                                  000153
10204602261000132000001600127040040000000000000640016820321371000000001604032137100000000000000000000000000602070125000032137100000000160403213710160225000000003784923704152  000000000000000000000000000000000000000000000000000000000000000000000000000000000000000000000000000000000000000000000                          0000000000                                                                  000154
10204602261000132000001600127040040000000000000640016840321372000000001604032137290000000000000000000000000602070125000032137200000000160403213729170225000000003784923704152  000000000000000000000000000000000000000000000000000000000000000000000000000000000000000000000000000000000000000000000                          0000000000                                                                  000155
10204602261000132000001600127040040000000000000640016890321373000000001604032137370000000000000000000000000602070125000032137300000000160403213737170225000000003942823704152  000000000000000000000000000000000000000000000000000000000000000000000000000000000000000000000000000000000000000000000                          0000000000                                                                  000156
10204602261000132000001600127040040000000000000640016900321374000000001604032137450000000000000000000000000602070125000032137400000000160403213745160225000000003784923704152  000000000000000000000000000000000000000000000000000000000000000000000000000000000000000000000000000000000000000000000                          0000000000                                                                  000157
10204602261000132000001600127040040000000000000640016930321375000000001604032137530000000000000000000000000602070125000032137500000000160403213753190225000000003398623704152  000000000000000000000000000000000000000000000000000000000000000000000000000000000000000000000000000000000000000000000                          0000000000                                                                  000158
10204602261000132000001600127040040000000000000640016960321376000000001604032137610000000000000000000000000602070125000032137600000000160403213761250225000000003499723704151  000000000000000000000000000000000000000000000000000000000000000000000000000000000000000000000000000000000000000000000                          0000000000                                                                  000159
102046022610001320000016001270400400000000000006400169703213770000000016040321377P000000000000000000000000060207012500003213770000000016040321377P200225000000007727323704151  000000000000000000000000000000000000000000000000000000000000000000000000000000000000000000000000000000000000000000000                          0000000000                                                                  000160
10204602261000132000001600127040040000000000000640016980321378000000001604032137880000000000000000000000000602070125000032137800000000160403213788250225000000003550823704152  000000000000000000000000000000000000000000000000000000000000000000000000000000000000000000000000000000000000000000000                          7600000000                                                                  000161
10204602261000132000001600127040040000000000000640017030321379000000001604032137960000000000000000000000000602070125000032137900000000160403213796260225000000003644523704151  000000000000000000000000000000000000000000000000000000000000000000000000000000000000000000000000000000000000000000000                          0000000000                                                                  000162
102046022610001320000016001270400400000000000006400170403213800000000016040321380P000000000000000000000000060207012500003213800000000016040321380P190225000000007569923704152  000000000000000000000000000000000000000000000000000000000000000000000000000000000000000000000000000000000000000000000                          0000000000                                                                  000163
10204602261000132000001600127040040000000000000640017060321381000000001604032138180000000000000000000000000602070125000032138100000000160403213818250225000000003942823704151  000000000000000000000000000000000000000000000000000000000000000000000000000000000000000000000000000000000000000000000                          0000000000                                                                  000164
10204602261000132000001600127040040000000000000640017070321382000000001604032138260000000000000000000000000602070125000032138200000000160403213826240225000000003613823704152  000000000000000000000000000000000000000000000000000000000000000000000000000000000000000000000000000000000000000000000                          0000000000                                                                  000165
10204602261000132000001600127040040000000000000640017080321383000000001604032138340000000000000000000000000602070125000032138300000000160403213834100225000000003599823704152  000000000000000000000000000000000000000000000000000000000000000000000000000000000000000000000000000000000000000000000                          7600000000                                                                  000166
10204602261000132000001600127040040000000000000640017100321384000000001604032138420000000000000000000000000602070125000032138400000000160403213842100225000000003550823704152  000000000000000000000000000000000000000000000000000000000000000000000000000000000000000000000000000000000000000000000                          7600000000                                                                  000167
10204602261000132000001600127040040000000000000640017110321385000000001604032138500000000000000000000000000602070125000032138500000000160403213850200225000000003942823704151  000000000000000000000000000000000000000000000000000000000000000000000000000000000000000000000000000000000000000000000                          7600000000                                                                  000168
10204602261000132000001600127040040000000000000640017140321386000000001604032138690000000000000000000000000602070125000032138600000000160403213869210225000000003942823704151  000000000000000000000000000000000000000000000000000000000000000000000000000000000000000000000000000000000000000000000                          0000000000                                                                  000169
10204602261000132000001600127040040000000000000640017170321387000000001604032138770000000000000000000000000602070125000032138700000000160403213877210225000000003942823704151  000000000000000000000000000000000000000000000000000000000000000000000000000000000000000000000000000000000000000000000                          0000000000                                                                  000170
10204602261000132000001600127040040000000000000640017180321388000000001604032138850000000000000000000000000602070125000032138800000000160403213885210225000000007569923704152  000000000000000000000000000000000000000000000000000000000000000000000000000000000000000000000000000000000000000000000                          0000000000                                                                  000171
10204602261000132000001600127040040000000000000640017190321389000000001604032138930000000000000000000000000602070125000032138900000000160403213893200225000000003942823704151  000000000000000000000000000000000000000000000000000000000000000000000000000000000000000000000000000000000000000000000                          0000000000                                                                  000172
10204602261000132000001600127040040000000000000640017200321390000000001604032139070000000000000000000000000602070125000032139000000000160403213907210225000000003942823704152  000000000000000000000000000000000000000000000000000000000000000000000000000000000000000000000000000000000000000000000                          7600000000                                                                  000173
10204602261000132000001600127040040000000000000640017210321391000000001604032139150000000000000000000000000602070125000032139100000000160403213915280225000000003942823704151  000000000000000000000000000000000000000000000000000000000000000000000000000000000000000000000000000000000000000000000                          0000000000                                                                  000174
10204602261000132000001600127040040000000000000640017240321392000000001604032139230000000000000000000000000602070125000032139200000000160403213923020225000000003784923704152  000000000000000000000000000000000000000000000000000000000000000000000000000000000000000000000000000000000000000000000                          0000000000                                                                  000175
10204602261000132000001600127040040000000000000640017250321393000000001604032139310000000000000000000000000602070125000032139300000000160403213931280225000000003784923704152  000000000000000000000000000000000000000000000000000000000000000000000000000000000000000000000000000000000000000000000                          0000000000                                                                  000176
102046022610001320000016001270400400000000000006400173003213940000000016040321394P000000000000000000000000060207012500003213940000000016040321394P280225000000003942823704151  000000000000000000000000000000000000000000000000000000000000000000000000000000000000000000000000000000000000000000000                          7600000000                                                                  000177
10204602261000132000001600127040040000000000000640017350321395000000001604032139580000000000000000000000000602070125000032139500000000160403213958280225000000004088223704151  000000000000000000000000000000000000000000000000000000000000000000000000000000000000000000000000000000000000000000000                          7600000000                                                                  000178
10204602261000132000001600127040040000000000000640017430321396000000001604032139660000000000000000000000000602070125000032139600000000160403213966220225000000003698223704151  000000000000000000000000000000000000000000000000000000000000000000000000000000000000000000000000000000000000000000000                          7600000000                                                                  000179
10204602261000132000001600127040040000000000000640022030321397000000001604032139740000000000000000000000000602070125000032139700000000160403213974050225000000003547123704151  000000000000000000000000000000000000000000000000000000000000000000000000000000000000000000000000000000000000000000000                          0000000000                                                                  000180
10204602261000132000001600127040040000000000000640022050321398000000001604032139820000000000000000000000000602070125000032139800000000160403213982080225000000003547123704152  000000000000000000000000000000000000000000000000000000000000000000000000000000000000000000000000000000000000000000000                          7600000000                                                                  000181
10204602261000132000001600127040040000000000000640022070321399000000001604032139900000000000000000000000000602070125000032139900000000160403213990090225000000003547123704151  000000000000000000000000000000000000000000000000000000000000000000000000000000000000000000000000000000000000000000000                          0000000000                                                                  000182
10204602261000132000001600127040040000000000000640022100321400000000001604032140080000000000000000000000000602070125000032140000000000160403214008080225000000003547123704152  000000000000000000000000000000000000000000000000000000000000000000000000000000000000000000000000000000000000000000000                          0000000000                                                                  000183
10204602261000132000001600127040040000000000000640022170321401000000001604032140160000000000000000000000000602070125000032140100000000160403214016120225000000006795323704152  000000000000000000000000000000000000000000000000000000000000000000000000000000000000000000000000000000000000000000000                          0000000000                                                                  000184
10204602261000132000001600127040040000000000000640022180321402000000001604032140240000000000000000000000000602070125000032140200000000160403214024140225000000007094523704152  000000000000000000000000000000000000000000000000000000000000000000000000000000000000000000000000000000000000000000000                          7600000000                                                                  000185
10204602261000132000001600127040040000000000000640022220321403000000001604032140320000000000000000000000000602070125000032140300000000160403214032190225000000003547123704152  000000000000000000000000000000000000000000000000000000000000000000000000000000000000000000000000000000000000000000000                          0000000000                                                                  000186
10204602261000132000001600127040040000000000000640022240321404000000001604032140400000000000000000000000000602070125000032140400000000160403214040140225000000003126923704151  000000000000000000000000000000000000000000000000000000000000000000000000000000000000000000000000000000000000000000000                          7600000000                                                                  000187
10204602261000132000001600127040040000000000000640022260321405000000001604032140590000000000000000000000000602070125000032140500000000160403214059070225000000007094523704151  000000000000000000000000000000000000000000000000000000000000000000000000000000000000000000000000000000000000000000000                          7600000000                                                                  000188
10204602261000132000001600127040040000000000000640022270321406000000001604032140670000000000000000000000000602070125000032140600000000160403214067180225000000003547123704152  000000000000000000000000000000000000000000000000000000000000000000000000000000000000000000000000000000000000000000000                          0000000000                                                                  000189
10204602261000132000001600127040040000000000000640022290321407000000001604032140750000000000000000000000000602070125000032140700000000160403214075150225000000003547123704152  000000000000000000000000000000000000000000000000000000000000000000000000000000000000000000000000000000000000000000000                          0000000000                                                                  000190
10204602261000132000001600127040040000000000000640022370321408000000001604032140830000000000000000000000000602070125000032140800000000160403214083160225000000003126923704151  000000000000000000000000000000000000000000000000000000000000000000000000000000000000000000000000000000000000000000000                          0000000000                                                                  000191
10204602261000132000001600127040040000000000000640022380321409000000001604032140910000000000000000000000000602070125000032140900000000160403214091010225000000006795323704151  000000000000000000000000000000000000000000000000000000000000000000000000000000000000000000000000000000000000000000000                          7600000000                                                                  000192
10204602261000132000001600127040040000000000000640022390321410000000001604032141050000000000000000000000000602070125000032141000000000160403214105110225000000003887223704151  000000000000000000000000000000000000000000000000000000000000000000000000000000000000000000000000000000000000000000000                          0000000000                                                                  000193
10204602261000132000001600127040040000000000000640022420321411000000001604032141130000000000000000000000000602070125000032141100000000160403214113160225000000003594123704151  000000000000000000000000000000000000000000000000000000000000000000000000000000000000000000000000000000000000000000000                          7600000000                                                                  000194
10204602261000132000001600127040040000000000000640022530321412000000001604032141210000000000000000000000000602070125000032141200000000160403214121280225000000003547123704152  000000000000000000000000000000000000000000000000000000000000000000000000000000000000000000000000000000000000000000000                          0000000000                                                                  000195
102046022610001320000016001270400400000000000006400225503214130000000016040321413P000000000000000000000000060207012500003214130000000016040321413P280225000000003547123704152  000000000000000000000000000000000000000000000000000000000000000000000000000000000000000000000000000000000000000000000                          0000000000                                                                  000196
10204602261000132000001600127040040000000000000640022610321414000000001604032141480000000000000000000000000602070125000032141400000000160403214148280225000000003547123704152  000000000000000000000000000000000000000000000000000000000000000000000000000000000000000000000000000000000000000000000                          0000000000                                                                  000197
10204602261000132000001600127040040000000000000640022620321415000000001604032141560000000000000000000000000602070125000032141500000000160403214156280225000000003547123704152  000000000000000000000000000000000000000000000000000000000000000000000000000000000000000000000000000000000000000000000                          7600000000                                                                  000198
10204602261000132000001600127040040000000000000640022640321416000000001604032141640000000000000000000000000602070125000032141600000000160403214164280225000000003547123704152  000000000000000000000000000000000000000000000000000000000000000000000000000000000000000000000000000000000000000000000                          0000000000                                                                  000199
10204602261000132000001600127040040000000000000640022710321417000000001604032141720000000000000000000000000602070125000032141700000000160403214172280225000000003547123704152  000000000000000000000000000000000000000000000000000000000000000000000000000000000000000000000000000000000000000000000                          0000000000                                                                  000200
10204602261000132000001600127040040000000000000640022730321418000000001604032141800000000000000000000000000602070125000032141800000000160403214180280225000000003547123704151  000000000000000000000000000000000000000000000000000000000000000000000000000000000000000000000000000000000000000000000                          0000000000                                                                  000201
10204602261000132000001600127040040000000000000640022770321419000000001604032141990000000000000000000000000602070125000032141900000000160403214199100225000000006795323704151  000000000000000000000000000000000000000000000000000000000000000000000000000000000000000000000000000000000000000000000                          0000000000                                                                  000202
10204602261000132000001600127040040000000000000640022810321420000000001604032142020000000000000000000000000602070125000032142000000000160403214202280225000000003547123704152  000000000000000000000000000000000000000000000000000000000000000000000000000000000000000000000000000000000000000000000                          0000000000                                                                  000203
10204602261000132000001600127040040000000000000640025880321421000000001604032142100000000000000000000000000602070125000032142100000000160403214210060225000000004336423704152  000000000000000000000000000000000000000000000000000000000000000000000000000000000000000000000000000000000000000000000                          7600000000                                                                  000204
10204602261000132000001600127040040000000000000640025900321422000000001604032142290000000000000000000000000602070125000032142200000000160403214229060225000000003796623704152  000000000000000000000000000000000000000000000000000000000000000000000000000000000000000000000000000000000000000000000                          0000000000                                                                  000205
10204602261000132000001600127040040000000000000640025910321423000000001604032142370000000000000000000000000602070125000032142300000000160403214237070225000000003796623704151  000000000000000000000000000000000000000000000000000000000000000000000000000000000000000000000000000000000000000000000                          0000000000                                                                  000206
10204602261000132000001600127040040000000000000640025930321424000000001604032142450000000000000000000000000602070125000032142400000000160403214245060225000000003796623704152  000000000000000000000000000000000000000000000000000000000000000000000000000000000000000000000000000000000000000000000                          0000000000                                                                  000207
10204602261000132000001600127040040000000000000640025940321425000000001604032142530000000000000000000000000602070125000032142500000000160403214253070225000000003796623704152  000000000000000000000000000000000000000000000000000000000000000000000000000000000000000000000000000000000000000000000                          0000000000                                                                  000208
10204602261000132000001600127040040000000000000640025950321426000000001604032142610000000000000000000000000602070125000032142600000000160403214261090225000000003796623704152  000000000000000000000000000000000000000000000000000000000000000000000000000000000000000000000000000000000000000000000                          0000000000                                                                  000209
102046022610001320000016001270400400000000000006400259803214270000000016040321427P000000000000000000000000060207012500003214270000000016040321427P090225000000003796623704152  000000000000000000000000000000000000000000000000000000000000000000000000000000000000000000000000000000000000000000000                          0000000000                                                                  000210
10204602261000132000001600127040040000000000000640026020321428000000001604032142880000000000000000000000000602070125000032142800000000160403214288100225000000003796623704151  000000000000000000000000000000000000000000000000000000000000000000000000000000000000000000000000000000000000000000000                          7600000000                                                                  000211
10204602261000132000001600127040040000000000000640026030321429000000001604032142960000000000000000000000000602070125000032142900000000160403214296150225000000011389123704152  000000000000000000000000000000000000000000000000000000000000000000000000000000000000000000000000000000000000000000000                          0000000000                                                                  000212
102046022610001320000016001270400400000000000006400260403214300000000016040321430P000000000000000000000000060207012500003214300000000016040321430P170225000000003561223704152  000000000000000000000000000000000000000000000000000000000000000000000000000000000000000000000000000000000000000000000                          0000000000                                                                  000213
10204602261000132000001600127040040000000000000640026080321431000000001604032143180000000000000000000000000602070125000032143100000000160403214318150225000000003511723704152  000000000000000000000000000000000000000000000000000000000000000000000000000000000000000000000000000000000000000000000                          7600000000                                                                  000214
10204602261000132000001600127040040000000000000640026090321432000000001604032143260000000000000000000000000602070125000032143200000000160403214326170225000000003796623704152  000000000000000000000000000000000000000000000000000000000000000000000000000000000000000000000000000000000000000000000                          7600000000                                                                  000215
10204602261000132000001600127040040000000000000640026140321433000000001604032143340000000000000000000000000602070125000032143300000000160403214334170225000000007592823704152  000000000000000000000000000000000000000000000000000000000000000000000000000000000000000000000000000000000000000000000                          7600000000                                                                  000216
10204602261000132000001600127040040000000000000640026150321434000000001604032143420000000000000000000000000602070125000032143400000000160403214342150225000000003796623704152  000000000000000000000000000000000000000000000000000000000000000000000000000000000000000000000000000000000000000000000                          0000000000                                                                  000217
10204602261000132000001600127040040000000000000640026170321435000000001604032143500000000000000000000000000602070125000032143500000000160403214350170225000000003561223704151  000000000000000000000000000000000000000000000000000000000000000000000000000000000000000000000000000000000000000000000                          7600000000                                                                  000218
10204602261000132000001600127040040000000000000640026200321436000000001604032143690000000000000000000000000602070125000032143600000000160403214369220225000000003796623704152  000000000000000000000000000000000000000000000000000000000000000000000000000000000000000000000000000000000000000000000                          0000000000                                                                  000219
10204602261000132000001600127040040000000000000640026210321437000000001604032143770000000000000000000000000602070125000032143700000000160403214377210225000000003796623704152  000000000000000000000000000000000000000000000000000000000000000000000000000000000000000000000000000000000000000000000                          0000000000                                                                  000220
10204602261000132000001600127040040000000000000640026250321438000000001604032143850000000000000000000000000602070125000032143800000000160403214385210225000000003796623704152  000000000000000000000000000000000000000000000000000000000000000000000000000000000000000000000000000000000000000000000                          0000000000                                                                  000221
10204602261000132000001600127040040000000000000640026330321439000000001604032143930000000000000000000000000602070125000032143900000000160403214393280225000000003796623704152  000000000000000000000000000000000000000000000000000000000000000000000000000000000000000000000000000000000000000000000                          7600000000                                                                  000222
10204602261000132000001600127040040000000000000640026350321440000000001604032144070000000000000000000000000602070125000032144000000000160403214407280225000000003796623704152  000000000000000000000000000000000000000000000000000000000000000000000000000000000000000000000000000000000000000000000                          0000000000                                                                  000223
10204602261000132000001600127040040000000000000640026390321441000000001604032144150000000000000000000000000602070125000032144100000000160403214415280225000000003796623704152  000000000000000000000000000000000000000000000000000000000000000000000000000000000000000000000000000000000000000000000                          0000000000                                                                  000224
10204602261000132000001600127040040000000000000640029090321442000000001604032144230000000000000000000000000602070125000032144200000000160403214423020225000000006795323704152  000000000000000000000000000000000000000000000000000000000000000000000000000000000000000000000000000000000000000000000                          0000000000                                                                  000225
10204602261000132000001600127040040000000000000640029130321443000000001604032144310000000000000000000000000602070125000032144300000000160403214431070225000000003397823704152  000000000000000000000000000000000000000000000000000000000000000000000000000000000000000000000000000000000000000000000                          0000000000                                                                  000226
102046022610001320000016001270400400000000000006400291403214440000000016040321444P000000000000000000000000060207012500003214440000000016040321444P070225000000003397823704152  000000000000000000000000000000000000000000000000000000000000000000000000000000000000000000000000000000000000000000000                          0000000000                                                                  000227
10204602261000132000001600127040040000000000000640029160321445000000001604032144580000000000000000000000000602070125000032144500000000160403214458080225000000006316323704152  000000000000000000000000000000000000000000000000000000000000000000000000000000000000000000000000000000000000000000000                          0000000000                                                                  000228
10204602261000132000001600127040040000000000000640029190321446000000001604032144660000000000000000000000000602070125000032144600000000160403214466080225000000003397823704151  000000000000000000000000000000000000000000000000000000000000000000000000000000000000000000000000000000000000000000000                          0000000000                                                                  000229
10204602261000132000001600127040040000000000000640029200321447000000001604032144740000000000000000000000000602070125000032144700000000160403214474080225000000003397823704152  000000000000000000000000000000000000000000000000000000000000000000000000000000000000000000000000000000000000000000000                          0000000000                                                                  000230
10204602261000132000001600127040040000000000000640029210321448000000001604032144820000000000000000000000000602070125000032144800000000160403214482070225000000005673423704151  000000000000000000000000000000000000000000000000000000000000000000000000000000000000000000000000000000000000000000000                          7600000000                                                                  000231
10204602261000132000001600127040040000000000000640029230321449000000001604032144900000000000000000000000000602070125000032144900000000160403214490060225000000002995223704151  000000000000000000000000000000000000000000000000000000000000000000000000000000000000000000000000000000000000000000000                          0000000000                                                                  000232
10204602261000132000001600127040040000000000000640029250321450000000001604032145040000000000000000000000000602070125000032145000000000160403214504090225000000002995223704152  000000000000000000000000000000000000000000000000000000000000000000000000000000000000000000000000000000000000000000000                          0000000000                                                                  000233
10204602261000132000001600127040040000000000000640029260321451000000001604032145120000000000000000000000000602070125000032145100000000160403214512050225000000003397823704152  000000000000000000000000000000000000000000000000000000000000000000000000000000000000000000000000000000000000000000000                          0000000000                                                                  000234
10204602261000132000001600127040040000000000000640029290321452000000001604032145200000000000000000000000000602070125000032145200000000160403214520250225000000005990423704151  000000000000000000000000000000000000000000000000000000000000000000000000000000000000000000000000000000000000000000000                          7600000000                                                                  000235
10204602261000132000001600127040040000000000000640029300321453000000001604032145390000000000000000000000000602070125000032145300000000160403214539150225000000003397823704152  000000000000000000000000000000000000000000000000000000000000000000000000000000000000000000000000000000000000000000000                          0000000000                                                                  000236
10204602261000132000001600127040040000000000000640029310321454000000001604032145470000000000000000000000000602070125000032145400000000160403214547150225000000003397823704152  000000000000000000000000000000000000000000000000000000000000000000000000000000000000000000000000000000000000000000000                          0000000000                                                                  000237
10204602261000132000001600127040040000000000000640029320321455000000001604032145550000000000000000000000000602070125000032145500000000160403214555170225000000006795323704151  000000000000000000000000000000000000000000000000000000000000000000000000000000000000000000000000000000000000000000000                          7600000000                                                                  000238
10204602261000132000001600127040040000000000000640029390321456000000001604032145630000000000000000000000000602070125000032145600000000160403214563190225000000005990423704151  000000000000000000000000000000000000000000000000000000000000000000000000000000000000000000000000000000000000000000000                          0000000000                                                                  000239
10204602261000132000001600127040040000000000000640029400321457000000001604032145710000000000000000000000000602070125000032145700000000160403214571210225000000002995223704151  000000000000000000000000000000000000000000000000000000000000000000000000000000000000000000000000000000000000000000000                          0000000000                                                                  000240
102046022610001320000016001270400400000000000006400294303214580000000016040321458P000000000000000000000000060207012500003214580000000016040321458P230225000000006795323704152  000000000000000000000000000000000000000000000000000000000000000000000000000000000000000000000000000000000000000000000                          0000000000                                                                  000241
10204602261000132000001600127040040000000000000640029460321459000000001604032145980000000000000000000000000602070125000032145900000000160403214598250225000000003397823704151  000000000000000000000000000000000000000000000000000000000000000000000000000000000000000000000000000000000000000000000                          7600000000                                                                  000242
10204602261000132000001600127040040000000000000640029500321460000000001604032146010000000000000000000000000602070125000032146000000000160403214601280225000000002995223704152  000000000000000000000000000000000000000000000000000000000000000000000000000000000000000000000000000000000000000000000                          0000000000                                                                  000243
102046022610001320000016001270400400000000000006400295203214610000000016040321461P000000000000000000000000060207012500003214610000000016040321461P280225000000002995223704152  000000000000000000000000000000000000000000000000000000000000000000000000000000000000000000000000000000000000000000000                          0000000000                                                                  000244
10204602261000132000001600127040040000000000000640029560321462000000001604032146280000000000000000000000000602070125000032146200000000160403214628270225000000003397823704152  000000000000000000000000000000000000000000000000000000000000000000000000000000000000000000000000000000000000000000000                          0000000000                                                                  000245
10204602261000132000001600127040040000000000000640029770321463000000001604032146360000000000000000000000000602070125000032146300000000160403214636110225000000002995223704152  000000000000000000000000000000000000000000000000000000000000000000000000000000000000000000000000000000000000000000000                          0000000000                                                                  000246
10204602261000132000001600127040040000000000000640032850321464000000001604032146440000000000000000000000000602070125000032146400000000160403214644210225000000003561223704152  000000000000000000000000000000000000000000000000000000000000000000000000000000000000000000000000000000000000000000000                          0000000000                                                                  000247
10204602261000132000001600127040040000000000000640033080321465000000001604032146520000000000000000000000000602070125000032146500000000160403214652020225000000003561223704152  000000000000000000000000000000000000000000000000000000000000000000000000000000000000000000000000000000000000000000000                          0000000000                                                                  000248
10204602261000132000001600127040040000000000000640033110321466000000001604032146600000000000000000000000000602070125000032146600000000160403214660020225000000003561223704152  000000000000000000000000000000000000000000000000000000000000000000000000000000000000000000000000000000000000000000000                          0000000000                                                                  000249
